:0400000036EF3FF0A8
:04000800CDEF3FF009
:107E62003F065B4F666D7D077F6F700ED36E5DECD4
:107E72003FF066EC3FF072EC3FF079EC3FF0036AC2
:107E8200026AC282C2B243EF3FF0D890C330006EA2
:107E9200026E7FEC3FF095EC3FF0AFEC3FF04CEF21
:107EA2003FF00F0B620FF66E7E0EF76ED8B0F72A18
:107EB200F86A0800F55012009380938293849280AE
:107EC200946A956A8B6A8C6A1200F19EF19CF19A0F
:107ED200F198F292F090F092F288F086F088F28EA9
:107EE20012000E0EC16EAA0EC06E010EC26E1200FC
:107EF200C70ED56ED66AF294F28A12000050090DAE
:107F0200086AF45006E1050EF3608AEF3FF091EF44
:107F12003FF0050EF35ED8A0F406082A82EF3FF088
:107F22000850200F016E120003B09BEF3FF000508B
:107F32009CEF3FF00150056E640E055CD8A0A4EFE3
:107F42003FF0630E056E046A0A0E055CD8A0AEEF20
:107F52003FF0056E042AA5EF3FF012008B908B9242
:107F6200045052EC3FF08C6E8B80C2EC3FF08B9051
:107F7200055052EC3FF08C6E8B82C2EC3FF08B923C
:107F82001200040E066E3C0E076E072EC6EF3FF07F
:107F9200062EC4EF3FF01200F2B2DAEF3FF0F0B07B
:107FA200DDEF3FF0F0B2E0EF3FF0F2B4E3EF3FF08D
:107FB2001000F2928B741000F0908B7C1000F09203
:107FC20003701000F29400C002F0D890C330006E2B
:107FD2007FEC3FF0230E025CD8B0F8EF3FF0230EA7
:107FE200005CD8A0FEEF3FF08B8CFEEF3FF0230E3B
:0E7FF200005CD8B0FEEF3FF08B9CC282100006
:020000040030CA
:0400000000091F1EB6
:020005008181F7
:060008000FC00FE00F40E5
:00000001FF
