:107EFC00DEEF3FF082EF3FF09CEC3FF0A5EC3FF063
:107F0C00B1EC3FF0B8EC3FF0BFEC3FF0D1EC3FF000
:107F1C008AEF3FF0E850F9263F0C060C5B0C4F0C37
:107F2C00660C6D0C7D0C070C7F0C6F0C9380938290
:107F3C0093849280946A956A8B6A8C6A1200F19E83
:107F4C00F19CF19AF198F292F090F092F288F0860E
:107F5C00F088F28E12000E0EC16EAA0EC06E010ECB
:107F6C00C26E1200870ED56ED76AD66AF294F28A68
:107F7C00120002B0C5EF3FF00050C6EF3FF00150C9
:107F8C00036A0A08D8A0CEEF3FF0032AC7EF3FF0F0
:107F9C000A0F046E12008C96035090EC3FF08B6E1F
:107FAC008C848C94045090EC3FF08B6E8C86120079
:107FBC00F2B2EBEF3FF0F0B0EEEF3FF0F0B2F1EFDA
:107FCC003FF0F2B4F4EF3FF011008C70F29211001C
:107FDC008C72F09011000270F0921100F294C28237
:107FEC00C450006EE844200F016E230E005CD8B024
:047FFC008C82110062
:020000040030CA
:0400000000091F1EB6
:020005008181F7
:060008000FC00FE00F40E5
:00000001FF
