:0400000042EF3FF09C
:04000800C9EF3FF00D
:107E7A003F065B4F666D7D077F6F700ED36E68ECB1
:107E8A003FF071EC3FF07DEC3FF084EC3FF0C282B2
:107E9A00C2B24DEF3FF0D890C430C330006E8AECC6
:107EAA003FF09AEC3FF0ADEC3FF056EF3FF00F0B8E
:107EBA00F66E7A0EF6267E0EF76ED8B0F72AF86AB4
:107ECA000800F55012009380938293849280946AFA
:107EDA00956A8B6A8C6A1200F19EF19CF19AF1986C
:107EEA00F292F090F092F288F086F088F28E120008
:107EFA000E0EC16EAA0EC06E010EC26E1200C70E21
:107F0A00D56ED66AF294F28A12000050E844E84428
:107F1A00076AFB0FD8A095EF3FF0072A8EEF3FF0D4
:107F2A0000500724200F016E120002B0A0EF3FF0AC
:107F3A000050A1EF3FF00150036A046E0A0E045C80
:107F4A00D8A0ACEF3FF0046E032AA3EF3FF0120073
:107F5A008B9203505CEC3FF08C6E8B80BEEC3FF052
:107F6A008B9004505CEC3FF08C6E8B82BEEC3FF041
:107F7A0012000A0E056E640E066E062EC2EF3FF060
:107F8A00052EC0EF3FF01200F2B2D6EF3FF0F0B08C
:107F9A00DCEF3FF0F0B2E2EF3FF0F2B4E8EF3FF08F
:107FAA001000F5EC3FF081A08B74F2921000F5EC12
:107FBA003FF081A28B7CF0901000F5EC3FF081A499
:107FCA000270F0921000F294D890C430C330006E60
:107FDA008AEC3FF0230E005CD8B08B8CC282100072
:107FEA00500E056E640E066E062EF9EF3FF0052E52
:067FFA00F7EF3FF012005A
:020000040030CA
:0400000000091F1EB6
:020005008181F7
:060008000FC00FE00F40E5
:00000001FF
