:040000001BEF3FF0C3
:04000800B5EF3FF021
:107E2C003F065B4F666D7D077F6F700ED36E46EC21
:107E3C003FF04FEC3FF05BEC3FF062EC3FF0046A3C
:107E4C00036A056A066A010E026EC282C2B22CEF88
:107E5C003FF0D890C432C330006E68EC3FF07EEC3B
:107E6C003FF097EC3FF035EF3FF00F0B2C0FF66E19
:107E7C007E0EF76ED8B0F72AF86A0800F55012009B
:107E8C009380938293849280946A956A8B6A8C6AAD
:107E9C001200F19EF19CF19AF198F292F090F0920E
:107EAC00F288F086F088F28E12000E0EC16EAA0EC9
:107EBC00C06E010EC26E1200C70ED56ED66AF29459
:107ECC00F28A12000050090D0B6AF45006E1050EFF
:107EDC00F36073EF3FF07AEF3FF0050EF35ED8A03E
:107EEC00F4060B2A6BEF3FF00B50200F016E1200C3
:107EFC0004B084EF3FF0005085EF3FF00150086E66
:107F0C00076A0A0E085CD8A090EF3FF0086E072AAB
:107F1C0087EF3FF00A0E075CD8A01200076E90EFB7
:107F2C003FF08B908B9207503BEC3FF08C6E8B802C
:107F3C00AAEC3FF08B9008503BEC3FF08C6E8B82A0
:107F4C00AAEC3FF08B921200040E096E3C0E0A6EE6
:107F5C000A2EAEEF3FF0092EACEF3FF01200F2B25A
:107F6C00C2EF3FF0F0B0CAEF3FF0F0B2D2EF3FF00B
:107F7C00F2B4DAEF3FF01000F29205B010008B74FF
:107F8C000580080E066E1000F09005B210008B7C78
:107F9C000582080E066E1000F09205B410000470F5
:107FAC000584080E066E1000F294065004E0062EAE
:107FBC00E1EF3FF0056A022E1000100E026ED89011
:107FCC00C432C330006E68EC3FF003B0F7EF3FF003
:107FDC00230E005CD8A0FEEF3FF003808B8CFEEFED
:107FEC003FF0220E005CD8B0FEEF3FF003908B9C6C
:047FFC00C28210002D
:020000040030CA
:0400000000091F1EB6
:020005008181F7
:060008000FC00FE00F40E5
:00000001FF
