:0400000040EF3FF09E
:04000800C8EF3FF00E
:107E76003F065B4F666D7D077F6F700ED36E67ECB6
:107E86003FF070EC3FF07CEC3FF083EC3FF0C282B9
:107E9600C2B24BEF3FF0D890C430C330006E0046FC
:107EA60089EC3FF099EC3FF0ACEC3FF055EF3FF03A
:107EB6000F0BF66E760EF6267E0EF76ED8B0F72A04
:107EC600F86A0800F550120093809382938492809A
:107ED600946A956A8B6A8C6A1200F19EF19CF19AFB
:107EE600F198F292F090F092F288F086F088F28E95
:107EF60012000E0EC16EAA0EC06E010EC26E1200E8
:107F0600C70ED56ED66AF294F28A12000050E84483
:107F1600E844076AFB0FD8A094EF3FF0072A8DEFDD
:107F26003FF000500724200F016E120002B09FEFB1
:107F36003FF00050A0EF3FF00150036A046E0A0EB6
:107F4600045CD8A0ABEF3FF0046E032AA2EF3FF02B
:107F560012008B9203505BEC3FF08C6E8B80BDEC75
:107F66003FF08B9004505BEC3FF08C6E8B82BDEC47
:107F76003FF01200050E056E3C0E066E062EC1EF92
:107F86003FF0052EBFEF3FF01200F2B2D5EF3FF003
:107F9600F0B0DBEF3FF0F0B2E1EF3FF0F2B4E7EF25
:107FA6003FF01000F5EC3FF081A08B74F2921000C8
:107FB600F5EC3FF081A28B7CF0901000F5EC3FF0E1
:107FC60081A40270F0921000F294D890C430C330AD
:107FD600006E004689EC3FF0230E005CD8B08B8C17
:107FE600C2821000500E056E640E066E062EF9EF64
:0A7FF6003FF0052EF7EF3FF01200F8
:020000040030CA
:0400000000091F1EB6
:020005008181F7
:060008000FC00FE00F40E5
:00000001FF
