:0400000024EF3FF0BA
:04000800B3EF3FF023
:107E3E003F065B4F666D7D077F6F700ED36E50EC05
:107E4E003FF059EC3FF065EC3FF06CEC3FF0100E5C
:107E5E00086E096A0A6A006A026AC282C2B235EF05
:107E6E003FF0D890C430C330006E72EC3FF082EC1D
:107E7E003FF095EC3FF03EEF3FF00F0BF66E3E0EEF
:107E8E00F6267E0EF76ED8B0F72AF86A0800F5507F
:107E9E0012009380938293849280946A956A8B6A7F
:107EAE008C6A1200F19EF19CF19AF198F292F09088
:107EBE00F092F288F086F088F28E12000E0EC16EED
:107ECE00AA0EC06E010EC26E1200C70ED56ED66A15
:107EDE00F294F28A12000050E844E844076AFB0F5D
:107EEE00D8A07DEF3FF0072A76EF3FF00050072431
:107EFE00200F016E120002B088EF3FF0005089EFA4
:107F0E003FF00150036A046E0A0E045CD8A094EF91
:107F1E003FF0046E032A8BEF3FF012008B908B9292
:107F2E00035044EC3FF08C6E8B80A8EC3FF08B90AE
:107F3E00045044EC3FF08C6E8B82A8EC3FF08B9299
:107F4E001200080E056E640E066E062EACEF3FF0A4
:107F5E00052EAAEF3FF01200F2B2C0EF3FF0F0B0E4
:107F6E00C6EF3FF0F0B2CCEF3FF0F2B4D2EF3FF0FD
:107F7E001000F5EC3FF081A08B74F2921000F5EC3E
:107F8E003FF081A28B7CF0901000F5EC3FF081A4C5
:107F9E000270F0921000F294C282C2B2D4EF3FF09F
:107FAE00D890C430C3300926D8B00A2A082EF4EF70
:107FBE003FF0100E086E040E0B6ED8900A32093286
:107FCE000B2EE4EF3FF00950006E096A0A6A72EC5C
:107FDE003FF0230E005CD8B08B8C1000500E056E57
:107FEE00640E066E062EF9EF3FF0052EF7EF3FF00A
:027FFE0012006F
:020000040030CA
:0400000000091F1EB6
:020005008181F7
:060008000FC00FE00F40E5
:00000001FF
