:0400000040EF3FF09E
:04000800C9EF3FF00D
:107E76003F065B4F666D7D077F6F700ED36E66ECB7
:107E86003FF06FEC3FF07BEC3FF082EC3FF0C282BC
:107E9600C2B24BEF3FF0D890C430C330006E88ECCE
:107EA6003FF098EC3FF0ABEC3FF054EF3FF00F0B98
:107EB600F66E760EF6267E0EF76ED8B0F72AF86ABC
:107EC6000800F55012009380938293849280946AFE
:107ED600956A8B6A8C6A1200F19EF19CF19AF19870
:107EE600F292F090F092F288F086F088F28E12000C
:107EF6000E0EC16EAA0EC06E010EC26E1200C70E25
:107F0600D56ED66AF294F28A12000050E844E8442C
:107F1600076AFB0FD8A093EF3FF0072A8CEF3FF0DC
:107F260000500724200F016E120002B09EEF3FF0B2
:107F360000509FEF3FF00150036A046E0A0E045C86
:107F4600D8A0AAEF3FF0046E032AA1EF3FF012007B
:107F56008B908B9203505AEC3FF08C6E8B80BEEC6C
:107F66003FF08B9004505AEC3FF08C6E8B82BEEC47
:107F76003FF08B921200080E056E640E066E062EFA
:107F8600C2EF3FF0052EC0EF3FF01200F2B2D6EF7F
:107F96003FF0F0B0DCEF3FF0F0B2E2EF3FF0F2B4CA
:107FA600E8EF3FF01000F5EC3FF081A08B74F29201
:107FB6001000F5EC3FF081A28B7CF0901000F5EC00
:107FC6003FF081A40270F0921000F294D890C43071
:107FD600C330006E88EC3FF0230E005CD8B08B8C6B
:107FE600C2821000500E056E640E066E062EF9EF64
:0A7FF6003FF0052EF7EF3FF01200F8
:020000040030CA
:0400000000091F1EB6
:020005008181F7
:060008000FC00FE00F40E5
:00000001FF
