:040000001DEF3FF0C1
:04000800B6EF3FF020
:107E30003F065B4F666D7D077F6F700ED36E47EC1C
:107E40003FF050EC3FF05CEC3FF063EC3FF0046A35
:107E5000036A056A066A010E026EC282C2B22EEF82
:107E60003FF0D890C330006E69EC3FF07FEC3FF0FC
:107E700098EC3FF036EF3FF00F0B300FF66E7E0EB2
:107E8000F76ED8B0F72AF86A0800F5501200938010
:107E9000938293849280946A956A8B6A8C6A1200AA
:107EA000F19EF19CF19AF198F292F090F092F288A2
:107EB000F086F088F28E12000E0EC16EAA0EC06E11
:107EC000010EC26E1200C70ED56ED66AF294F28A07
:107ED00012000050090D0B6AF45006E1050EF36024
:107EE00074EF3FF07BEF3FF0050EF35ED8A0F40691
:107EF0000B2A6CEF3FF00B50200F016E120004B004
:107F000085EF3FF0005086EF3FF00150086E076AA2
:107F10000A0E085CD8A091EF3FF0086E072A88EFA0
:107F20003FF00A0E075CD8A01200076E91EF3FF0F9
:107F30008B908B9207503CEC3FF08C6E8B80ABECBF
:107F40003FF08B9008503CEC3FF08C6E8B82ABEC9A
:107F50003FF08B921200040E096E3C0E0A6E0A2E40
:107F6000AFEF3FF0092EADEF3FF01200F2B2C3EFDA
:107F70003FF0F0B0CBEF3FF0F0B2D3EF3FF0F2B410
:107F8000DBEF3FF01000F29205B010008B7405801B
:107F9000080E066E1000F09005B210008B7C058272
:107FA000080E066E1000F09205B4100004700584EF
:107FB000080E066E1000F294065004E0062EE2EF62
:107FC0003FF0056A022E1000100E026ED890C330EA
:107FD000006E69EC3FF003B0F7EF3FF0230E005C5A
:107FE000D8A0FEEF3FF003808B8CFEEF3FF0220E17
:107FF000005CD8B0FEEF3FF003908B9CC282100073
:020000040030CA
:0400000000091F1EB6
:020005008181F7
:060008000FC00FE00F40E5
:00000001FF
