:107F6A00E7EF3FF0B9EF3FF0C3EC3FF0CBEC3FF067
:107F7A00D7EC3FF0DFEC3FF0C1EF3FF09380938204
:107F8A009384959095928C908C921200F19EF19C1C
:107F9A00F19AF198F292F090F092F288F086F088D5
:107FAA00F28E120092800E0EC16EAA0EC06E010EE3
:107FBA00C26E1200870ED56E000ED76ED66EF29480
:107FCA00F28A1200F2B2F4EF3FF0F0B0F7EF3FF0AE
:107FDA00F0B2FAEF3FF0F2B4FDEF3FF011008C700F
:107FEA00F29211008C72F09011000270F09211005E
:067FFA00F294C2821100A6
:020000040030CA
:0400000000091F1EB6
:020005008181F7
:060008000FC00FE00F40E5
:00000001FF
