:0400000013EF3FF0CB
:04000800B0EF3FF026
:107E1C003F065B4F666D7D077F6F700ED36E41EC36
:107E2C003FF04AEC3FF056EC3FF05DEC3FF0046A5B
:107E3C00036A056A066A010E026EC282C2B224EFA0
:107E4C003FF0D890C432C330006E030E0060005E69
:107E5C0063EC3FF079EC3FF092EC3FF030EF3FF009
:107E6C000F0B1C0FF66E7E0EF76ED8B0F72AF86A61
:107E7C000800F55012009380938293849280946A48
:107E8C00956A8B6A8C6A1200F19EF19CF19AF198BA
:107E9C00F292F090F092F288F086F088F28E120056
:107EAC000E0EC16EAA0EC06E010EC26E1200C70E6F
:107EBC00D56ED66AF294F28A12000050090D0B6A44
:107ECC00F45006E1050EF3606EEF3FF075EF3FF0F6
:107EDC00050EF35ED8A0F4060B2A66EF3FF00B50AC
:107EEC00200F016E120004B07FEF3FF0005080EFC6
:107EFC003FF00150086E076A0A0E085CD8A08BEFA1
:107F0C003FF0086E072A82EF3FF00A0E075CD8A0FC
:107F1C001200076E8BEF3FF08B908B92075036EC74
:107F2C003FF08C6E8B80A5EC3FF08B90085036ECBC
:107F3C003FF08C6E8B82A5EC3FF08B921200040EFE
:107F4C00096E3C0E0A6E0A2EA9EF3FF0092EA7EF20
:107F5C003FF01200F2B2BDEF3FF0F0B0C5EF3FF0D2
:107F6C00F0B2CDEF3FF0F2B4D5EF3FF01000F2924B
:107F7C0005B010008B740580080E066E1000F09092
:107F8C0005B210008B7C0582080E066E1000F09274
:107F9C0005B4100004700584080E066E1000F294EF
:107FAC00065004E0062EDCEF3FF0056A022E1000AE
:107FBC00100E026ED890C432C330006E030E0060F7
:107FCC00005E63EC3FF003B0F6EF3FF01E0E005C7A
:107FDC00D8A0FEEF3FF003808B8C8B84FEEF3FF03C
:107FEC001D0E005CD8B0FEEF3FF003908B9C8B9481
:047FFC00C28210002D
:020000040030CA
:0400000000091F1EB6
:020005008181F7
:060008000FC00FE00F40E5
:00000001FF
