:0400000011EF3FF0CD
:04000800ADEF3FF029
:107E18003F065B4F666D7D077F6F700ED36E3EEC3D
:107E28003FF047EC3FF053EC3FF05AEC3FF0046A68
:107E3800036A056A066A010E026EC282C2B222EFA6
:107E48003FF0D890C330006E070E0060005E60EC13
:107E58003FF076EC3FF08FEC3FF02DEF3FF00F0B4B
:107E6800180FF66E7E0EF76ED8B0F72AF86A08007B
:107E7800F55012009380938293849280946A956A55
:107E88008B6A8C6A1200F19EF19CF19AF198F29239
:107E9800F090F092F288F086F088F28E12000E0EC2
:107EA800C16EAA0EC06E010EC26E1200C70ED56E4C
:107EB800D66AF294F28A12000050090D0B6AF45047
:107EC80006E1050EF3606BEF3FF072EF3FF0050E31
:107ED800F35ED8A0F4060B2A63EF3FF00B50200F97
:107EE800016E120004B07CEF3FF000507DEF3FF0D0
:107EF8000150086E076A0A0E085CD8A088EF3FF0A8
:107F0800086E072A7FEF3FF00A0E075CD8A0120020
:107F1800076E88EF3FF08B908B92075033EC3FF061
:107F28008C6E8B80A2EC3FF08B90085033EC3FF0C6
:107F38008C6E8B82A2EC3FF08B921200040E096EBD
:107F48003C0E0A6E0A2EA6EF3FF0092EA4EF3FF072
:107F58001200F2B2BAEF3FF0F0B0C4EF3FF0F0B267
:107F6800CEEF3FF0F2B4D8EF3FF01000F29281B0BC
:107F7800100005B010008B740580080E066E100006
:107F8800F09081B2100005B210008B7C0582080EBB
:107F9800066E1000F09281B4100005B41000047051
:107FA8000584080E066E1000F294065004E0062EB2
:107FB800DFEF3FF0056A022E1000100E026ED89017
:107FC800C330006E070E0060005E60EC3FF003B047
:107FD800F7EF3FF0230E005CD8A0FEEF3FF00380E0
:107FE8008B8CFEEF3FF0220E005CD8B0FEEF3FF026
:087FF80003908B9CC282100073
:020000040030CA
:0400000000091F1EB6
:020005008181F7
:060008000FC00FE00F40E5
:00000001FF
