:107F0A00E5EF3FF089EF3FF0A3EC3FF0ACEC3FF038
:107F1A00B8EC3FF0BFEC3FF0C6EC3FF0D8EC3FF0D6
:107F2A0091EF3FF0E850F9263F0C060C5B0C4F0C22
:107F3A00660C6D0C7D0C070C7F0C6F0C9380938282
:107F4A0093849280946A956A8B6A8C6A1200F19E75
:107F5A00F19CF19AF198F292F090F092F288F08600
:107F6A00F088F28E12000E0EC16EAA0EC06E010EBD
:107F7A00C26E1200870ED56ED76AD66AF294F28A5A
:107F8A00120002B0CCEF3FF00050CDEF3FF00150AD
:107F9A00036A0A08D8A0D5EF3FF0032ACEEF3FF0D4
:107FAA000A0F046E12008C96035097EC3FF08B6E0A
:107FBA008C848C94045097EC3FF08B6E8C86120064
:107FCA00F2B2F2EF3FF0F0B0F5EF3FF0F0B2F8EFB7
:107FDA003FF0F2B4FBEF3FF011008C70F292110007
:107FEA008C72F09011000270F0921100F294C28229
:067FFA00C450006E1100EE
:020000040030CA
:0400000000091F1EB6
:020005008181F7
:060008000FC00FE00F40E5
:00000001FF
