:040000006FEF3FF06F
:04000800DCEF3FF0FA
:107ED4003F065B4F666D7D077F6F700ED36E93EC2C
:107EE4003FF09CEC3FF0A5EC3FF0ACEC3FF0C282DD
:107EF400C2B27AEF3FF0D890C430C330006EB2EC17
:107F04003FF0C5EC3FF081EF3FF00F0BF66ED40E5F
:107F1400F6267E0EF76ED8B0F72AF86A0800F550F8
:107F240012009380938293849280946A956A8B6AF8
:107F34008C6A1200F19EF292F090F092F288F08630
:107F4400F088F28E12000E0EC16EAA0EC06E010EE3
:107F5400C26E1200C70ED56ED66AF294F28A12006F
:107F640002B0B8EF3FF00050B9EF3FF00150036AA0
:107F7400046E0A0E045CD8A0C4EF3FF0046E032A1A
:107F8400BBEF3FF012008B92035087EC3FF08C6EF6
:107F94008B80D6EC3FF08B90045087EC3FF08C6ED6
:107FA4008B82D6EC3FF012000F0E056E052ED8EF33
:107FB4003FF01200F2B2E9EF3FF0F0B0ECEF3FF027
:107FC400F0B2EFEF3FF0F2B4F2EF3FF011008B7438
:107FD400F29211008B7CF09011000270F09211006B
:107FE400F294D890C430C330006EE844200F016E80
:0C7FF400230E005CD8B08B8CC282110000
:020000040030CA
:0400000000091F1EB6
:020005008181F7
:060008000FC00FE00F40E5
:00000001FF
