:0400000053EF3FF08B
:04000800DBEF3FF0FB
:107E9C003F065B4F666D7D077F6F700ED36E79EC7E
:107EAC003FF082EC3FF08EEC3FF095EC3FF0026A35
:107EBC00C282C2B25FEF3FF0D890C330006E9BEC31
:107ECC003FF0AAEC3FF0BDEC3FF067EF3FF00F0B3B
:107EDC00F66E9C0EF6267E0EF76ED8B0F72AF86A70
:107EEC000800F55012009380938293849280946AD8
:107EFC00956A8B6A8C6A1200F19EF19CF19AF1984A
:107F0C00F292F090F092F288F086F088F28E1200E5
:107F1C000E0EC16EAA0EC06E010EC26E1200C70EFE
:107F2C00D56ED66AF294F28A12000050090DF35005
:107F3C00076AFB0FD8A0A6EF3FF0072A9FEF3FF090
:107F4C000750200F016E120002B0B0EF3FF000504E
:107F5C00B1EF3FF00150036A046E0A0E045CD8A026
:107F6C00BCEF3FF0046E032AB3EF3FF012008B908E
:107F7C008B9203506DEC3FF08C6E8B80D0EC3FF00D
:107F8C008B9004506DEC3FF08C6E8B82D0EC3FF0FC
:107F9C008B921200060E056E500E066E062ED4EF56
:107FAC003FF0052ED2EF3FF01200F2B2E8EF3FF0B7
:107FBC00F0B0EBEF3FF0F0B2EEEF3FF0F2B4F1EFD8
:107FCC003FF01000F2928B741000F0908B7C10003C
:107FDC00F09202701000F294C282C2B2F3EF3FF042
:107FEC00D890C330006E9BEC3FF0230E005CD8B0F1
:047FFC008B8C10005A
:020000040030CA
:0400000000091F1EB6
:020005008181F7
:060008000FC00FE00F40E5
:00000001FF
