:0400000060EF3FF07E
:04000800DDEF3FF0F9
:107EA6000F0BE844F9263F0C060C5B0C4F0C660CD6
:107EB6006D0C7D0C070C7F0C6F0C700ED36E7BEC7B
:107EC6003FF084EC3FF090EC3FF097EC3FF0026A15
:107ED600C282C2B26CEF3FF0D890C430C330006E9D
:107EE6009DEC3FF0ACEC3FF0BFEC3FF075EF3FF0A0
:107EF6009380938293849280946A956A8B6A8C6A43
:107F06001200F19EF19CF19AF198F292F090F092A3
:107F1600F288F086F088F28E12000E0EC16EAA0E5E
:107F2600C06E010EC26E1200C70ED56ED66AF294EE
:107F3600F28A12000050090DF350056AFB0FD8A013
:107F4600A8EF3FF0052AA1EF3FF00550200F016E84
:107F5600120002B0B2EF3FF00050B3EF3FF0015015
:107F6600036A046E0A0E045CD8A0BEEF3FF0046EEE
:107F7600032AB5EF3FF012008B908B92035053EC1F
:107F86003FF08C6E8B80D2EC3FF08B90045053EC1C
:107F96003FF08C6E8B82D2EC3FF08B921200060E75
:107FA600056E500E066E062ED6EF3FF0052ED4EF68
:107FB6003FF01200F2B2EAEF3FF0F0B0EDEF3FF023
:107FC600F0B2F0EF3FF0F2B4F3EF3FF010008B7435
:107FD600F29210008B7CF09010000270F09210006C
:107FE600F294D890C430C330006E9DEC3FF0230E5F
:0A7FF600005CD8B08B8CC282100032
:020000040030CA
:0400000000091F1EB6
:020005008181F7
:060008000FC00FE00F40E5
:00000001FF
