:0400000034EF3FF0AA
:04000800CBEF3FF00B
:107E5E003F065B4F666D7D077F6F700ED36E5CECD9
:107E6E003FF065EC3FF071EC3FF078EC3FF0046AC8
:107E7E00036A010E026EC282C2B243EF3FF0D89087
:107E8E00C330006E7EEC3FF094EC3FF0ADEC3FF073
:107E9E004BEF3FF00F0B5E0FF66E7E0EF76ED8B007
:107EAE00F72AF86A0800F5501200938093829384A3
:107EBE009280946A956A8B6A8C6A1200F19EF19C8C
:107ECE00F19AF198F292F090F092F288F086F088A2
:107EDE00F28E12000E0EC16EAA0EC06E010EC26E92
:107EEE001200C70ED56ED66AF294F28A12000050B6
:107EFE00090D096AF45006E1050EF36089EF3FF0B3
:107F0E0090EF3FF0050EF35ED8A0F406092A81EF3C
:107F1E003FF00950200F016E120004B09AEF3FF0AF
:107F2E0000509BEF3FF00150066E056A0A0E065C8C
:107F3E00D8A0A6EF3FF0066E052A9DEF3FF00A0E81
:107F4E00055CD8A01200056EA6EF3FF08B908B92C9
:107F5E00055051EC3FF08C6E8B80C0EC3FF08B9057
:107F6E00065051EC3FF08C6E8B82C0EC3FF08B9242
:107F7E001200040E076E3C0E086E082EC4EF3FF082
:107F8E00072EC2EF3FF01200F2B2D8EF3FF0F0B082
:107F9E00DBEF3FF0F0B2DEEF3FF0F2B4E1EF3FF097
:107FAE001000F2928B741000F0908B7C1000F09207
:107FBE0004701000F294022E1000100E026ED89073
:107FCE00C330006E7EEC3FF003B0F7EF3FF0230EB0
:107FDE00005CD8A0FEEF3FF003808B8CFEEF3FF0ED
:107FEE00220E005CD8B0FEEF3FF003908B9CC28255
:027FFE00100071
:020000040030CA
:0400000000091F1EB6
:020005008181F7
:060008000FC00FE00F40E5
:00000001FF
