:0400000019EF3FF0C5
:04000800B3EF3FF023
:107E28003F065B4F666D7D077F6F700ED36E44EC27
:107E38003FF04DEC3FF059EC3FF060EC3FF0046A46
:107E4800036A056A066A010E026EC282C2B22AEF8E
:107E58003FF0D890C432C330006E66EC3FF07CEC43
:107E68003FF095EC3FF033EF3FF00F0B280FF66E25
:107E78007E0EF76ED8B0F72AF86A0800F55012009F
:107E88009380938293849280946A956A8B6A8C6AB1
:107E98001200F19EF19CF19AF198F292F090F09212
:107EA800F288F086F088F28E12000E0EC16EAA0ECD
:107EB800C06E010EC26E1200C70ED56ED66AF2945D
:107EC800F28A12000050090D0B6AF45006E1050E03
:107ED800F36071EF3FF078EF3FF0050EF35ED8A046
:107EE800F4060B2A69EF3FF00B50200F016E1200C9
:107EF80004B082EF3FF0005083EF3FF00150086E6E
:107F0800076A0A0E085CD8A08EEF3FF0086E072AB1
:107F180085EF3FF00A0E075CD8A01200076E8EEFBF
:107F28003FF08B908B92075039EC3FF08C6E8B8032
:107F3800A8EC3FF08B90085039EC3FF08C6E8B82A8
:107F4800A8EC3FF08B921200040E096E3C0E0A6EEC
:107F58000A2EACEF3FF0092EAAEF3FF01200F2B262
:107F6800C0EF3FF0F0B0C8EF3FF0F0B2D0EF3FF015
:107F7800F2B4D8EF3FF01000F29205B010008B7405
:107F88000580080E066E1000F09005B210008B7C7C
:107F98000582080E066E1000F09205B410000470F9
:107FA8000584080E066E1000F294065004E0062EB2
:107FB800DFEF3FF0056A022E1000100E026ED89017
:107FC800C432C330006E66EC3FF003B0F6EF3FF00A
:107FD8001E0E005CD8A0FEEF3FF003808B8C8B84D4
:107FE800FEEF3FF01D0E005CD8B0FEEF3FF00390AF
:087FF8008B9C8B94C2821000E7
:020000040030CA
:0400000000091F1EB6
:020005008181F7
:060008000FC00FE00F40E5
:00000001FF
