:0400000027EF3FF0B7
:04000800C0EF3FF016
:107E44003F065B4F666D7D077F6F700ED36E51ECFE
:107E54003FF05AEC3FF066EC3FF06DEC3FF0046A03
:107E6400036A056A010E026EC282C2B237EF3FF0A6
:107E7400D890C430C330006E73EC3FF089EC3FF00F
:107E8400A2EC3FF040EF3FF00F0B440FF66E7E0E76
:107E9400F76ED8B0F72AF86A0800F55012009380FC
:107EA400938293849280946A956A8B6A8C6A120096
:107EB400F19EF19CF19AF198F292F090F092F2888E
:107EC400F086F088F28E12000E0EC16EAA0EC06EFD
:107ED400010EC26E1200C70ED56ED66AF294F28AF3
:107EE40012000050090D0A6AF45006E1050EF36011
:107EF4007EEF3FF085EF3FF0050EF35ED8A0F40669
:107F04000A2A76EF3FF00A50200F016E120004B0E7
:107F14008FEF3FF0005090EF3FF00150076E066A7C
:107F24000A0E075CD8A09BEF3FF0076E062A92EF7B
:107F34003FF00A0E065CD8A01200066E9BEF3FF0DD
:107F44008B908B92065046EC3FF08C6E8B80B5EC98
:107F54003FF08B90075046EC3FF08C6E8B82B5EC73
:107F64003FF08B921200040E086E3C0E096E092E2F
:107F7400B9EF3FF0082EB7EF3FF01200F2B2CDEFA9
:107F84003FF0F0B0D3EF3FF0F0B2D9EF3FF0F2B4EE
:107F9400DFEF3FF01000F29205B010008B74058003
:107FA4001000F09005B210008B7C05821000F09256
:107FB40005B41000047005841000F294056A022EC2
:107FC4001000100E026ED890C430C330006E73ECF3
:107FD4003FF003B0F7EF3FF0230E005CD8A0FEEFB4
:107FE4003FF003808B8CFEEF3FF0220E005CD8B094
:0C7FF400FEEF3FF003908B9CC282100057
:020000040030CA
:0400000000091F1EB6
:020005008181F7
:060008000FC00FE00F40E5
:00000001FF
