:0400000015EF3FF0C9
:04000800B2EF3FF024
:107E20003F065B4F666D7D077F6F700ED36E43EC30
:107E30003FF04CEC3FF058EC3FF05FEC3FF0046A51
:107E4000036A056A066A010E026EC282C2B226EF9A
:107E50003FF0D890C432C330006E030E0060005E65
:107E600065EC3FF07BEC3FF094EC3FF032EF3FF0FD
:107E70000F0B200FF66E7E0EF76ED8B0F72AF86A59
:107E80000800F55012009380938293849280946A44
:107E9000956A8B6A8C6A1200F19EF19CF19AF198B6
:107EA000F292F090F092F288F086F088F28E120052
:107EB0000E0EC16EAA0EC06E010EC26E1200C70E6B
:107EC000D56ED66AF294F28A12000050090D0B6A40
:107ED000F45006E1050EF36070EF3FF077EF3FF0EE
:107EE000050EF35ED8A0F4060B2A68EF3FF00B50A6
:107EF000200F016E120004B081EF3FF0005082EFBE
:107F00003FF00150086E076A0A0E085CD8A08DEF9A
:107F10003FF0086E072A84EF3FF00A0E075CD8A0F6
:107F20001200076E8DEF3FF08B908B92075038EC6C
:107F30003FF08C6E8B80A7EC3FF08B90085038ECB4
:107F40003FF08C6E8B82A7EC3FF08B921200040EF8
:107F5000096E3C0E0A6E0A2EABEF3FF0092EA9EF18
:107F60003FF01200F2B2BFEF3FF0F0B0C7EF3FF0CA
:107F7000F0B2CFEF3FF0F2B4D7EF3FF01000F29243
:107F800005B010008B740580080E066E1000F0908E
:107F900005B210008B7C0582080E066E1000F09270
:107FA00005B4100004700584080E066E1000F294EB
:107FB000065004E0062EDEEF3FF0056A022E1000A8
:107FC000100E026ED890C432C330006E030E0060F3
:107FD000005E65EC3FF003B0F7EF3FF0230E005C6E
:107FE000D8A0FEEF3FF003808B8CFEEF3FF0220E17
:107FF000005CD8B0FEEF3FF003908B9CC282100073
:020000040030CA
:0400000000091F1EB6
:020005008181F7
:060008000FC00FE00F40E5
:00000001FF
